:100000000C9434000C943E000C943E000C943E0082
:100010000C943E000C943E000C943E000C943E0068
:100020000C943E000C943E000C943E000C943E0058
:100030000C943E000C943E000C943E000C943E0048
:100040000C943E000C943E000C943E000C943E0038
:100050000C943E000C943E000C943E000C943E0028
:100060000C943E000C943E0011241FBECFEFD8E04C
:10007000DEBFCDBF0E9440000C94E6000C9400004F
:100080001AB814B88FEF87B98AB183608AB918B8E3
:100090009FEF489914C018B82FEF33ED80E321503B
:1000A00030408040E1F700C0000098B92FEF33EDF9
:1000B00080E3215030408040E1F700C000004999C2
:1000C0001AC018B888B1856088B92FEF3FE087E281
:1000D000215030408040E1F700C0000018B888B1DE
:1000E0008A6088B92FEF3FE087E22150304080409E
:1000F000E1F700C00000489932C018B82FEF35EA88
:100100008EE0215030408040E1F700C00000409A6E
:100110002FEF33ED80E3215030408040E1F700C005
:100120000000419A2FEF33ED80E3215030408040B2
:10013000E1F700C00000429A2FEF33ED80E3215039
:1001400030408040E1F700C00000439A2FEF33EDCC
:1001500080E3215030408040E1F700C00000199951
:1001600098CF88B18F6088B92FEF33ED80E32150AD
:1001700030408040E1F700C0000043982FEF33ED9E
:1001800080E3215030408040E1F700C000004298F9
:100190002FEF33ED80E3215030408040E1F700C085
:1001A000000041982FEF33ED80E321503040804034
:1001B000E1F700C0000040982FEF33ED80E32150BD
:1001C00030408040E1F700C0000063CFF894FFCFDB
:00000001FF
