:100000000C9434000C943E000C943E000C943E0082
:100010000C943E000C943E000C943E000C943E0068
:100020000C943E000C943E000C943E000C943E0058
:100030000C943E000C943E000C943E000C943E0048
:100040000C943E000C943E000C9440000C943E0036
:100050000C943E000C943E000C943E000C943E0028
:100060000C943E000C943E0011241FBECFEFD8E04C
:10007000DEBFCDBF0E946F000C94AE000C94000058
:100080001F920F920FB60F9211242F935F936F93CD
:100090007F938F939F93AF93BF938091C60090ED12
:1000A000980F9A3078F4880F8056982F990F990FEF
:1000B000890F2FEF829FC001112464E670E00E9437
:1000C000860067BDBF91AF919F918F917F916F9196
:1000D0005F912F910F900FBE0F901F901895569A19
:1000E00084B5836084BD84B5806884BD85B5826035
:1000F00085BD1092C50087E68093C40088E980938F
:10010000C10086E08093C2007894FFCF97FB072E52
:1001100016F4009407D077FD09D00E949A0007FCDE
:1001200005D03EF4909581959F4F08957095619507
:100130007F4F0895AA1BBB1B51E107C0AA1FBB1F1D
:10014000A617B70710F0A61BB70B881F991F5A9563
:10015000A9F780959095BC01CD010895F894FFCF43
:00000001FF
