:100000000C9434000C9451000C9451000C94510049
:100010000C9451000C945F000C9451000C9451000E
:100020000C9451000C9451000C9451000C9451000C
:100030000C9451000C9451000C9451000C945100FC
:100040000C9451000C9451000C94A3000C9451009A
:100050000C9451000C9451000C9451000C945100DC
:100060000C9451000C94510011241FBECFEFD8E026
:10007000DEBFCDBF11E0A0E0B1E0E2ECF2E002C0F3
:1000800005900D92A234B107D9F721E0A2E4B1E0C6
:1000900001C01D92AD36B207E1F70E94EF000C944B
:1000A0005F010C940000FC019191992339F080913B
:1000B000C00085FFFCCF9093C600F6CF08951F9235
:1000C0000F920FB60F9211242F933F934F935F938C
:1000D0006F937F938F939F93AF93BF93EF93FF9310
:1000E0004C9920C080916B0190916C010196909386
:1000F0006C0180936B0181E191E00E94530080913B
:100100006B0190916C014AE067E571E00E9410017B
:1001100087E591E00E9453008FE391E00E94530035
:100120004C9BFECFFF91EF91BF91AF919F918F912B
:100130007F916F915F914F913F912F910F900FBEE3
:100140000F901F9018951F920F920FB60F921124C7
:100150002F933F934F935F936F937F938F939F93CF
:10016000AF93BF93EF93FF938091C6009091560198
:10017000933180F4E091560191E09E0F90935601E7
:10018000F0E0EE5BFE4F8083E0915601F0E0EE5B25
:10019000FE4F108280915601853080F069E271E057
:1001A00082E491E00E944501892B41F010926C019C
:1001B00010926B018FE291E00E945300FF91EF914A
:1001C000BF91AF919F918F917F916F915F914F916F
:1001D0003F912F910F900FBE0F901F9018951AB856
:1001E0005C9A1092C50087E68093C40088E98093EA
:1001F000C10086E08093C200809168008460809393
:10020000680080916D00806180936D0010926C0198
:1002100010926B01789480E091E00E945300FFCF30
:10022000BB274A3031F4992322F4BDE290958195A1
:100230009F4F0C941C01BB27FB015527AA27880F51
:10024000991FAA1FA41710F0A41B83955051B9F74A
:10025000A05DAA3308F0A95DA193009779F7B111C9
:10026000B1931192CB010C943501DC01FC01672F95
:1002700071917723E1F7329704C07C916D9370837D
:100280006291AE17BF07C8F30895FB015191552342
:10029000A9F0BF01DC014D9145174111E1F759F477
:1002A000CD010190002049F04D9140154111C9F355
:1002B000FB014111EFCF81E090E001970895F894A0
:0202C000FFCF6E
:1002C200417065727465206F20626F74616F3A0AC3
:1002D200004E756D2076657A657320626F74616F6A
:1002E2002070726573733A20007A657261720043FE
:1002F2006F6E7461646F72207A657261646F0D0A49
:020302000000F9
:107E0000112484B714BE81FFF0D085E080938100F7
:107E100082E08093C00088E18093C10086E0809377
:107E2000C20080E18093C4008EE0C9D0259A86E02C
:107E300020E33CEF91E0309385002093840096BBD3
:107E4000B09BFECF1D9AA8958150A9F7CC24DD24C4
:107E500088248394B5E0AB2EA1E19A2EF3E0BF2EE7
:107E6000A2D0813461F49FD0082FAFD0023811F036
:107E7000013811F484E001C083E08DD089C08234E0
:107E800011F484E103C0853419F485E0A6D080C0E4
:107E9000853579F488D0E82EFF2485D0082F10E0AE
:107EA000102F00270E291F29000F111F8ED06801E7
:107EB0006FC0863521F484E090D080E0DECF843638
:107EC00009F040C070D06FD0082F6DD080E0C81688
:107ED00080E7D80618F4F601B7BEE895C0E0D1E017
:107EE00062D089930C17E1F7F0E0CF16F0E7DF06D8
:107EF00018F0F601B7BEE89568D007B600FCFDCFD4
:107F0000A601A0E0B1E02C9130E011968C91119780
:107F100090E0982F8827822B932B1296FA010C0160
:107F200087BEE89511244E5F5F4FF1E0A038BF0790
:107F300051F7F601A7BEE89507B600FCFDCF97BE46
:107F4000E89526C08437B1F42ED02DD0F82E2BD052
:107F50003CD0F601EF2C8F010F5F1F4F84911BD097
:107F6000EA94F801C1F70894C11CD11CFA94CF0C13
:107F7000D11C0EC0853739F428D08EE10CD085E9AC
:107F80000AD08FE07ACF813511F488E018D01DD067
:107F900080E101D065CF982F8091C00085FFFCCF94
:107FA0009093C60008958091C00087FFFCCF809118
:107FB000C00084FD01C0A8958091C6000895E0E648
:107FC000F0E098E1908380830895EDDF803219F02E
:107FD00088E0F5DFFFCF84E1DECF1F93182FE3DFCA
:107FE0001150E9F7F2DF1F91089580E0E8DFEE27F6
:047FF000FF270994CA
:027FFE00040479
:0400000300007E007B
:00000001FF
