:100000000C9434000C944B000C9440000C943E0073
:100010000C943E000C943E000C943E000C943E0068
:100020000C943E000C943E000C943E000C943E0058
:100030000C943E000C943E000C943E000C943E0048
:100040000C943E000C943E000C943E000C943E0038
:100050000C943E000C943E000C943E000C943E0028
:100060000C943E000C943E0011241FBECFEFD8E04C
:10007000DEBFCDBF0E9456000C9464000C940000BB
:100080001F920F920FB60F921124289A0F900FBE55
:100090000F901F9018951F920F920FB60F92112478
:1000A00015B80F900FBE0F901F9018951AB8209A90
:1000B00015B882E08093690091E09DBB98E0909331
:0C00C00069008DBB7894FFCFF894FFCF4F
:00000001FF
