:100000000C9434000C9446000C9446000C9446006A
:100010000C9446000C9446000C9446000C94460048
:100020000C9446000C9446000C9446000C94460038
:100030000C9446000C9446000C9448000C94460026
:100040000C9446000C9446000C9446000C94460018
:100050000C9446000C9446000C9446000C94460008
:100060000C9446000C94460011241FBECFEFD8E03C
:10007000DEBFCDBF21E0A0E0B1E001C01D92A13004
:10008000B207E1F70E9482000C94FA000C94000081
:100090001F920F920FB60F9211242F933F934F93FD
:1000A0005F936F937F938F939F93AF93BF93EF93E0
:1000B000FF93609100016F5F6093000170E080E04A
:1000C00090E00E94960022E433E344E752E40E9469
:1000D000D100181634F498B181E0892788B91092BC
:1000E0000001FF91EF91BF91AF919F918F917F910F
:1000F0006F915F914F913F912F910F900FBE0F9095
:100100001F9018958FEF87B918B884B5826084BDA9
:1001100085B5856085BD80916E00826080936E009C
:10012000789488EC87BDFFCFE89409C097FB3EF434
:1001300090958095709561957F4F8F4F9F4F992334
:10014000A9F0F92F96E9BB279395F69587957795B2
:100150006795B795F111F8CFFAF4BB0F11F460FF72
:100160001BC06F5F7F4F8F4F9F4F16C0882311F0CA
:1001700096E911C0772321F09EE8872F762F05C0DE
:10018000662371F096E8862F70E060E02AF09A9579
:10019000660F771F881FDAF7880F9695879597F96E
:1001A00008950E94D60008F48FEF0895990F000873
:1001B000550FAA0BE0E8FEEF16161706E807F90739
:1001C000C0F012161306E407F50798F0621B730BD4
:1001D000840B950B39F40A2661F0232B242B252B55
:1001E00021F408950A2609F4A140A6958FEF811DF8
:0801F000811D0895F894FFCF72
:107E0000112484B714BE81FFF0D085E080938100F7
:107E100082E08093C00088E18093C10086E0809377
:107E2000C20080E18093C4008EE0C9D0259A86E02C
:107E300020E33CEF91E0309385002093840096BBD3
:107E4000B09BFECF1D9AA8958150A9F7CC24DD24C4
:107E500088248394B5E0AB2EA1E19A2EF3E0BF2EE7
:107E6000A2D0813461F49FD0082FAFD0023811F036
:107E7000013811F484E001C083E08DD089C08234E0
:107E800011F484E103C0853419F485E0A6D080C0E4
:107E9000853579F488D0E82EFF2485D0082F10E0AE
:107EA000102F00270E291F29000F111F8ED06801E7
:107EB0006FC0863521F484E090D080E0DECF843638
:107EC00009F040C070D06FD0082F6DD080E0C81688
:107ED00080E7D80618F4F601B7BEE895C0E0D1E017
:107EE00062D089930C17E1F7F0E0CF16F0E7DF06D8
:107EF00018F0F601B7BEE89568D007B600FCFDCFD4
:107F0000A601A0E0B1E02C9130E011968C91119780
:107F100090E0982F8827822B932B1296FA010C0160
:107F200087BEE89511244E5F5F4FF1E0A038BF0790
:107F300051F7F601A7BEE89507B600FCFDCF97BE46
:107F4000E89526C08437B1F42ED02DD0F82E2BD052
:107F50003CD0F601EF2C8F010F5F1F4F84911BD097
:107F6000EA94F801C1F70894C11CD11CFA94CF0C13
:107F7000D11C0EC0853739F428D08EE10CD085E9AC
:107F80000AD08FE07ACF813511F488E018D01DD067
:107F900080E101D065CF982F8091C00085FFFCCF94
:107FA0009093C60008958091C00087FFFCCF809118
:107FB000C00084FD01C0A8958091C6000895E0E648
:107FC000F0E098E1908380830895EDDF803219F02E
:107FD00088E0F5DFFFCF84E1DECF1F93182FE3DFCA
:107FE0001150E9F7F2DF1F91089580E0E8DFEE27F6
:047FF000FF270994CA
:027FFE00040479
:0400000300007E007B
:00000001FF
