:100000000C9434000C9446000C9446000C94880028
:100010000C9446000C9446000C9446000C94460048
:100020000C9446000C9446000C9446000C94460038
:100030000C9446000C9446000C9446000C94460028
:100040000C9448000C9446000C9446000C94460016
:100050000C9446000C9446000C9446000C94460008
:100060000C9446000C94460011241FBECFEFD8E03C
:10007000DEBFCDBF21E0A0E0B1E001C01D92A630FF
:10008000B207E1F70E94B4000C94D1000C94000078
:100090001F920F920FB60F9211242F938F939F935D
:1000A000AF93BF9380910501882341F180910101B5
:1000B00090910201A0910301B09104010196A11D4C
:1000C000B11D8093010190930201A0930301B093AD
:1000D000040184369240A105B10580F0199904C04D
:1000E000599A81E08093000110920501109201015C
:1000F000109202011092030110920401BF91AF917E
:100100009F918F912F910F900FBE0F901F90189578
:100110001F920F920FB60F9211248F93199908C056
:1001200080910001811104C080910501882351F064
:100130001A9914C080910001882381F05998109277
:1001400000010CC081E08093050110920101109222
:1001500002011092030110920401EACF8F910F90D7
:100160000FBE0F901F90189582E08AB984B1897FE5
:1001700084B985B1866085B959988091680081609D
:100180008093680080916B00866080936B0014BC44
:1001900085E085BD80916E00816080936E007894CB
:0601A000FFCFF894FFCF31
:00000001FF
