:100000000C9434000C9446000C9446000C9446006A
:100010000C9446000C9446000C9446000C94460048
:100020000C9446000C9446000C9446000C94460038
:100030000C9446000C9446000C9448000C94460026
:100040000C9446000C9446000C9446000C94460018
:100050000C9446000C9446000C9446000C94460008
:100060000C9446000C94460011241FBECFEFD8E03C
:10007000DEBFCDBF21E0A0E0B1E001C01D92A43001
:10008000B207E1F70E94C3000C94F7000C94000043
:100090001F920F920FB60F9211242F933F934F93FD
:1000A0005F936F937F938F939F93AF93BF93EF93E0
:1000B000FF938091000190910101A0910201B09104
:1000C0000301BC01CD016F5F7F4F8F4F9F4F609346
:1000D000000170930101809302019093030120E1DC
:1000E00037E240E050E00E94D500672B682B692B77
:1000F00009F4589A60910001709101018091020108
:100100009091030120E137E240E050E00E94D500E9
:10011000683E73408105910509F45898809100016B
:1001200090910101A0910201B0910301803C97429E
:10013000A940B10509F4599A8091000190910101FB
:10014000A0910201B091030184329842A940B10507
:1001500049F4599810920001109201011092020185
:1001600010920301FF91EF91BF91AF919F918F91F9
:100170007F916F915F914F913F912F910F900FBEA3
:100180000F901F9018958FEF8AB91BB884B58260C5
:1001900084BD85B5826085BD87EC87BD80916E008A
:1001A000826080936E007894FFCFA1E21A2EAA1B82
:1001B000BB1BFD010DC0AA1FBB1FEE1FFF1FA21717
:1001C000B307E407F50720F0A21BB30BE40BF50B14
:1001D000661F771F881F991F1A9469F7609570959D
:1001E000809590959B01AC01BD01CF010895F894D5
:0201F000FFCF3F
:00000001FF
