:100000000C9434000C9446000C9446000C9446006A
:100010000C9446000C9448000C9446000C94460046
:100020000C9446000C9446000C9446000C94460038
:100030000C9446000C9446000C9446000C94460028
:100040000C9446000C9446000C9446000C94460018
:100050000C9446000C9446000C9446000C94460008
:100060000C9446000C94460011241FBECFEFD8E03C
:10007000DEBFCDBF21E0A0E0B1E001C01D92A23003
:10008000B207E1F70E9466000C947F000C94000018
:100090001F920F920FB60F9211248F939F9349993D
:1000A0000AC080910001909101014A96909301014C
:1000B0008093000102C08091000187BD87B59F91A8
:1000C0008F910F900FBE0F901F901895569A5E98C3
:1000D000599A84B5836084BD84B5806884BD85B534
:1000E000826085BD80916800846080936800809103
:1000F0006D00826080936D00789417BCFFCFF894F8
:02010000FFCF2F
:00000001FF
