:100000000C9434000C9446000C9446000C9446006A
:100010000C9446000C9446000C9446000C94460048
:100020000C9446000C9446000C9446000C94460038
:100030000C9446000C9446000C9446000C94460028
:100040000C9448000C9446000C9446000C94460016
:100050000C9446000C9446000C9446000C94460008
:100060000C9446000C94460011241FBECFEFD8E03C
:10007000DEBFCDBF21E0A0E0B1E001C01D92A13004
:10008000B207E1F70E9482000C94F6000C94000085
:100090001F920F920FB60F9211242F933F934F93FD
:1000A0005F936F937F938F939F93AF93BF93EF93E0
:1000B000FF93609100016F5F6093000170E080E04A
:1000C00090E00E94920022E433E344E752E40E946D
:1000D000CD00181634F498B181E0892788B91092C0
:1000E0000001FF91EF91BF91AF919F918F917F910F
:1000F0006F915F914F913F912F910F900FBE0F9095
:100100001F9018958FEF87B918B814BC85B5856016
:1001100085BD80916E00816080936E007894FFCFE2
:10012000E89409C097FB3EF4909580957095619591
:100130007F4F8F4F9F4F9923A9F0F92F96E9BB2747
:100140009395F695879577956795B795F111F8CFC3
:10015000FAF4BB0F11F460FF1BC06F5F7F4F8F4F2E
:100160009F4F16C0882311F096E911C0772321F024
:100170009EE8872F762F05C0662371F096E8862FBC
:1001800070E060E02AF09A95660F771F881FDAF713
:10019000880F9695879597F908950E94D20008F4E4
:1001A0008FEF0895990F0008550FAA0BE0E8FEEFB6
:1001B00016161706E807F907C0F012161306E4072B
:1001C000F50798F0621B730B840B950B39F40A2624
:1001D00061F0232B242B252B21F408950A2609F402
:1001E000A140A6958FEF811D811D0895F894FFCF42
:00000001FF
