:100000000C9434000C943E000C943E000C943E0082
:100010000C943E000C943E000C943E000C943E0068
:100020000C943E000C943E000C943E000C943E0058
:100030000C943E000C943E000C943E000C943E0048
:100040000C943E000C943E000C943E000C943E0038
:100050000C943E000C943E000C943E000C943E0028
:100060000C943E000C943E0011241FBECFEFD8E04C
:10007000DEBFCDBF0E9440000C9468000C940000CD
:100080001AB882E287B980E284B992E088B915B8DB
:100090002FEF37EA41E6215030404040E1F700C001
:1000A000000098B915B82FEF33ED40E321503040F0
:1000B0004040E1F700C0000085B918B82FEF37EADB
:1000C00041E6215030404040E1F700C00000DECF63
:0400D000F894FFCFD2
:00000001FF
