:100000000C9434000C943E000C943E000C943E0082
:100010000C943E000C943E000C943E000C943E0068
:100020000C943E000C943E000C943E000C943E0058
:100030000C943E000C943E000C943E000C943E0048
:100040000C943E000C943E000C943E000C943E0038
:100050000C943E000C943E000C943E000C943E0028
:100060000C943E000C943E0011241FBECFEFD8E04C
:10007000DEBFCDBF0E9440000C9471000C940000C4
:1000800087B1876087B98AB18F718AB98BB1806E69
:100090008BB918B899B189B129B118B825FD02C03A
:1000A000429A11C0807497FD18C081110BC088B1AD
:1000B000836088B92FEF85EA9EE021508040904010
:1000C000E1F708C0409A2FEF8FE097E2215080407F
:1000D0009040E1F700C00000DDCF8111DBCF419AF5
:0600E000F2CFF894FFCFFF
:00000001FF
