:100000000C9434000C9464000C944B000C94490044
:100010000C9449000C9449000C9449000C9449003C
:100020000C9449000C9449000C9449000C9449002C
:100030000C9449000C9449000C9449000C9449001C
:100040000C9449000C9449000C9449000C9449000C
:100050000C9449000C9449000C9449000C944900FC
:100060000C9449000C94490011241FBECFEFD8E036
:10007000DEBFCDBF11E0A0E0B1E0ECE5F1E002C0F1
:1000800005900D92A230B107D9F70E9486000C941A
:10009000AC000C9400001F920F920FB60F92112427
:1000A0008F9380910001882329F0E8981092000135
:1000B0005D9804C0E89A81E0809300018F910F90D1
:1000C0000FBE0F901F9018951F920F920FB60F92B0
:1000D00011242F933F938F939F939BB180E1982797
:1000E0009BB92FEF33ED90E3215030409040E1F782
:1000F00000C000009BB189278BB99F918F913F91E0
:100100002F910F900FBE0F901F901895809169004E
:1001100083608093690080916900886080936900A2
:100120008AB180638AB98BB18C608BB98DB38360DF
:100130008DBB789490E2809100018823E1F38BB12C
:1001400089278BB92FEF39E688E121503040804074
:0C015000E1F700C00000EFCFF894FFCFF3
:02015C000100A0
:00000001FF
