:100000000C9434000C943E000C943E000C946E0052
:100010000C943E000C9440000C943E000C943E0066
:100020000C943E000C943E000C943E000C943E0058
:100030000C943E000C943E000C943E000C943E0048
:100040000C943E000C943E000C943E000C943E0038
:100050000C943E000C943E000C943E000C943E0028
:100060000C943E000C943E0011241FBECFEFD8E04C
:10007000DEBFCDBF0E949C000C94C1000C94000018
:100080001F920F920FB60F9211242F933F934F930D
:100090008F939F9345982FEF35EA4EE021503040E3
:1000A0004040E1F700C000008AE020E295B19227CD
:1000B00095B99FEF35EA4EE0915030404040E1F76E
:1000C00000C00000815091F79F918F914F913F9117
:1000D0002F910F900FBE0F901F9018951F920F92A7
:1000E0000FB60F9211242F933F934F938F939F93AB
:1000F00045982FEF3BE44DE1215030404040E1F77F
:1001000000C000008AE020E295B1922795B99FEFE8
:100110003BE44DE1915030404040E1F700C0000029
:10012000815091F79F918F914F913F912F910F9017
:100130000FBE0F901F9018958FEF87B91AB8259AA8
:10014000279815B818B8809168008560809368007A
:1001500080916B00806880936B0080916D0082605D
:1001600080936D00789490E288B1892788B92FEF49
:1001700033E284EF215030408040E1F700C00000BE
:06018000F3CFF894FFCF5D
:00000001FF
