:100000000C9434000C943E000C943E000C943E0082
:100010000C943E000C943E000C943E000C943E0068
:100020000C943E000C943E000C943E000C943E0058
:100030000C943E000C943E000C943E000C943E0048
:100040000C943E000C943E000C943E000C943E0038
:100050000C943E000C943E000C943E000C943E0028
:100060000C943E000C943E0011241FBECFEFD8E04C
:10007000DEBFCDBF0E9440000C94C4000C94000071
:10008000569A8FEF8BB984B5836084BD84B5806840
:1000900084BD85B5826085BD80E887BD80917A008A
:1000A000806880937A0080917A00876080937A00DC
:1000B00080E480937C00CC24CA9423E0D22EE12CEF
:1000C000F12C80917C00807E826080937C00809106
:1000D0007A00806480937A0080917A0086FDFCCF5C
:1000E000809178002091790030E0322F2227A901F9
:1000F000330F660B770B9A01AB01282BAFEFB0E003
:100100000E94AA00A70196010E94880027BDD9CFAE
:10011000A1E21A2EAA1BBB1BFD010DC0AA1FBB1F0B
:10012000EE1FFF1FA217B307E407F50720F0A21B7D
:10013000B30BE40BF50B661F771F881F991F1A94EA
:1001400069F760957095809590959B01AC01BD0114
:10015000CF0108950E94B500A59F900DB49F900D0A
:10016000A49F800D911D11240895A29FB001B39FFB
:10017000C001A39F700D811D1124911DB29F700DB0
:0C018000811D1124911D0895F894FFCFFB
:00000001FF
