:100000000C9434000C943E000C943E000C943E0082
:100010000C943E000C943E000C943E000C943E0068
:100020000C943E000C943E000C943E000C943E0058
:100030000C943E000C943E000C943E000C943E0048
:100040000C943E000C943E000C9440000C943E0036
:100050000C943E000C943E000C943E000C943E0028
:100060000C943E000C943E0011241FBECFEFD8E04C
:10007000DEBFCDBF0E9457000C9468000C940000B6
:100080001F920F920FB60F9211248F938091C6008A
:10009000893319F45D9A5E9804C0883311F45D9831
:1000A0005E9A8F910F900FBE0F901F9018958AB196
:1000B00080668AB91BB81092C50087E68093C40099
:1000C00088E98093C10086E08093C2007894FFCFD6
:0400D000F894FFCFD2
:00000001FF
